{
    "contractName": "Color",
    "abi": [
        {
            "constant": true,
            "inputs": [
                {
                    "name": "interfaceId",
                    "type": "bytes4"
                }
            ],
            "name": "supportsInterface",
            "outputs": [
                {
                    "name": "",
                    "type": "bool"
                }
            ],
            "payable": false,
            "stateMutability": "view",
            "type": "function"
        },
        {
            "constant": true,
            "inputs": [],
            "name": "name",
            "outputs": [
                {
                    "name": "",
                    "type": "string"
                }
            ],
            "payable": false,
            "stateMutability": "view",
            "type": "function"
        },
        {
            "constant": true,
            "inputs": [
                {
                    "name": "tokenId",
                    "type": "uint256"
                }
            ],
            "name": "getApproved",
            "outputs": [
                {
                    "name": "",
                    "type": "address"
                }
            ],
            "payable": false,
            "stateMutability": "view",
            "type": "function"
        },
        {
            "constant": false,
            "inputs": [
                {
                    "name": "to",
                    "type": "address"
                },
                {
                    "name": "tokenId",
                    "type": "uint256"
                }
            ],
            "name": "approve",
            "outputs": [],
            "payable": false,
            "stateMutability": "nonpayable",
            "type": "function"
        },
        {
            "constant": true,
            "inputs": [],
            "name": "totalSupply",
            "outputs": [
                {
                    "name": "",
                    "type": "uint256"
                }
            ],
            "payable": false,
            "stateMutability": "view",
            "type": "function"
        },
        {
            "constant": false,
            "inputs": [
                {
                    "name": "from",
                    "type": "address"
                },
                {
                    "name": "to",
                    "type": "address"
                },
                {
                    "name": "tokenId",
                    "type": "uint256"
                }
            ],
            "name": "transferFrom",
            "outputs": [],
            "payable": false,
            "stateMutability": "nonpayable",
            "type": "function"
        },
        {
            "constant": true,
            "inputs": [
                {
                    "name": "owner",
                    "type": "address"
                },
                {
                    "name": "index",
                    "type": "uint256"
                }
            ],
            "name": "tokenOfOwnerByIndex",
            "outputs": [
                {
                    "name": "",
                    "type": "uint256"
                }
            ],
            "payable": false,
            "stateMutability": "view",
            "type": "function"
        },
        {
            "constant": false,
            "inputs": [
                {
                    "name": "from",
                    "type": "address"
                },
                {
                    "name": "to",
                    "type": "address"
                },
                {
                    "name": "tokenId",
                    "type": "uint256"
                }
            ],
            "name": "safeTransferFrom",
            "outputs": [],
            "payable": false,
            "stateMutability": "nonpayable",
            "type": "function"
        },
        {
            "constant": true,
            "inputs": [
                {
                    "name": "index",
                    "type": "uint256"
                }
            ],
            "name": "tokenByIndex",
            "outputs": [
                {
                    "name": "",
                    "type": "uint256"
                }
            ],
            "payable": false,
            "stateMutability": "view",
            "type": "function"
        },
        {
            "constant": true,
            "inputs": [
                {
                    "name": "tokenId",
                    "type": "uint256"
                }
            ],
            "name": "ownerOf",
            "outputs": [
                {
                    "name": "",
                    "type": "address"
                }
            ],
            "payable": false,
            "stateMutability": "view",
            "type": "function"
        },
        {
            "constant": true,
            "inputs": [],
            "name": "baseURI",
            "outputs": [
                {
                    "name": "",
                    "type": "string"
                }
            ],
            "payable": false,
            "stateMutability": "view",
            "type": "function"
        },
        {
            "constant": true,
            "inputs": [
                {
                    "name": "owner",
                    "type": "address"
                }
            ],
            "name": "balanceOf",
            "outputs": [
                {
                    "name": "",
                    "type": "uint256"
                }
            ],
            "payable": false,
            "stateMutability": "view",
            "type": "function"
        },
        {
            "constant": false,
            "inputs": [
                {
                    "name": "_color",
                    "type": "bytes3"
                }
            ],
            "name": "mint",
            "outputs": [],
            "payable": false,
            "stateMutability": "nonpayable",
            "type": "function"
        },
        {
            "constant": true,
            "inputs": [],
            "name": "symbol",
            "outputs": [
                {
                    "name": "",
                    "type": "string"
                }
            ],
            "payable": false,
            "stateMutability": "view",
            "type": "function"
        },
        {
            "constant": false,
            "inputs": [
                {
                    "name": "to",
                    "type": "address"
                },
                {
                    "name": "approved",
                    "type": "bool"
                }
            ],
            "name": "setApprovalForAll",
            "outputs": [],
            "payable": false,
            "stateMutability": "nonpayable",
            "type": "function"
        },
        {
            "constant": false,
            "inputs": [
                {
                    "name": "from",
                    "type": "address"
                },
                {
                    "name": "to",
                    "type": "address"
                },
                {
                    "name": "tokenId",
                    "type": "uint256"
                },
                {
                    "name": "_data",
                    "type": "bytes"
                }
            ],
            "name": "safeTransferFrom",
            "outputs": [],
            "payable": false,
            "stateMutability": "nonpayable",
            "type": "function"
        },
        {
            "constant": true,
            "inputs": [
                {
                    "name": "",
                    "type": "uint256"
                }
            ],
            "name": "colors",
            "outputs": [
                {
                    "name": "",
                    "type": "bytes3"
                }
            ],
            "payable": false,
            "stateMutability": "view",
            "type": "function"
        },
        {
            "constant": true,
            "inputs": [
                {
                    "name": "tokenId",
                    "type": "uint256"
                }
            ],
            "name": "tokenURI",
            "outputs": [
                {
                    "name": "",
                    "type": "string"
                }
            ],
            "payable": false,
            "stateMutability": "view",
            "type": "function"
        },
        {
            "constant": true,
            "inputs": [
                {
                    "name": "owner",
                    "type": "address"
                },
                {
                    "name": "operator",
                    "type": "address"
                }
            ],
            "name": "isApprovedForAll",
            "outputs": [
                {
                    "name": "",
                    "type": "bool"
                }
            ],
            "payable": false,
            "stateMutability": "view",
            "type": "function"
        },
        {
            "inputs": [],
            "payable": false,
            "stateMutability": "nonpayable",
            "type": "constructor"
        },
        {
            "anonymous": false,
            "inputs": [
                {
                    "indexed": true,
                    "name": "from",
                    "type": "address"
                },
                {
                    "indexed": true,
                    "name": "to",
                    "type": "address"
                },
                {
                    "indexed": true,
                    "name": "tokenId",
                    "type": "uint256"
                }
            ],
            "name": "Transfer",
            "type": "event"
        },
        {
            "anonymous": false,
            "inputs": [
                {
                    "indexed": true,
                    "name": "owner",
                    "type": "address"
                },
                {
                    "indexed": true,
                    "name": "approved",
                    "type": "address"
                },
                {
                    "indexed": true,
                    "name": "tokenId",
                    "type": "uint256"
                }
            ],
            "name": "Approval",
            "type": "event"
        },
        {
            "anonymous": false,
            "inputs": [
                {
                    "indexed": true,
                    "name": "owner",
                    "type": "address"
                },
                {
                    "indexed": true,
                    "name": "operator",
                    "type": "address"
                },
                {
                    "indexed": false,
                    "name": "approved",
                    "type": "bool"
                }
            ],
            "name": "ApprovalForAll",
            "type": "event"
        }
    ],
    "bytecode": "60806040523480156200001157600080fd5b506040518060400160405280601081526020017f436f6c6f7220636f6c6c656374696f6e000000000000000000000000000000008152506040518060400160405280600581526020017f434f4c4f520000000000000000000000000000000000000000000000000000008152508181620000986301ffc9a760e01b6200011660201b60201c565b620000b06380ac58cd60e01b6200011660201b60201c565b620000c863780e9d6360e01b6200011660201b60201c565b8151620000dd906009906020850190620001e5565b508051620000f390600a906020840190620001e5565b506200010c635b5e139f60e01b6200011660201b60201c565b505050506200028a565b7fffffffff000000000000000000000000000000000000000000000000000000008082161415620001a857604080517f08c379a000000000000000000000000000000000000000000000000000000000815260206004820152601c60248201527f4552433136353a20696e76616c696420696e7465726661636520696400000000604482015290519081900360640190fd5b7fffffffff00000000000000000000000000000000000000000000000000000000166000908152602081905260409020805460ff19166001179055565b828054600181600116156101000203166002900490600052602060002090601f016020900481019282601f106200022857805160ff191683800117855562000258565b8280016001018555821562000258579182015b82811115620002585782518255916020019190600101906200023b565b50620002669291506200026a565b5090565b6200028791905b8082111562000266576000815560010162000271565b90565b611aaf806200029a6000396000f3fe608060405234801561001057600080fd5b50600436106101215760003560e01c80636352211e116100ad578063a22cb46511610071578063a22cb4651461038e578063b88d4fde146103bc578063bd11f69d14610482578063c87b56dd146104bc578063e985e9c5146104d957610121565b80636352211e146103145780636c0360eb1461033157806370a082311461033957806380bcefab1461035f57806395d89b411461038657610121565b806318160ddd116100f457806318160ddd1461024557806323b872dd1461025f5780632f745c591461029557806342842e0e146102c15780634f6ccce7146102f757610121565b806301ffc9a71461012657806306fdde0314610161578063081812fc146101de578063095ea7b314610217575b600080fd5b61014d6004803603602081101561013c57600080fd5b50356001600160e01b031916610507565b604080519115158252519081900360200190f35b61016961052a565b6040805160208082528351818301528351919283929083019185019080838360005b838110156101a357818101518382015260200161018b565b50505050905090810190601f1680156101d05780820380516001836020036101000a031916815260200191505b509250505060405180910390f35b6101fb600480360360208110156101f457600080fd5b50356105c1565b604080516001600160a01b039092168252519081900360200190f35b6102436004803603604081101561022d57600080fd5b506001600160a01b038135169060200135610628565b005b61024d610752565b60408051918252519081900360200190f35b6102436004803603606081101561027557600080fd5b506001600160a01b03813581169160208101359091169060400135610758565b61024d600480360360408110156102ab57600080fd5b506001600160a01b0381351690602001356107b9565b610243600480360360608110156102d757600080fd5b506001600160a01b0381358116916020810135909116906040013561083b565b61024d6004803603602081101561030d57600080fd5b5035610856565b6101fb6004803603602081101561032a57600080fd5b50356108c0565b61016961091f565b61024d6004803603602081101561034f57600080fd5b50356001600160a01b0316610980565b6102436004803603602081101561037557600080fd5b50356001600160e81b0319166109ed565b610169610aee565b610243600480360360408110156103a457600080fd5b506001600160a01b0381351690602001351515610b4f565b610243600480360360808110156103d257600080fd5b6001600160a01b0382358116926020810135909116916040820135919081019060808101606082013564010000000081111561040d57600080fd5b82018360208201111561041f57600080fd5b8035906020019184600183028401116401000000008311171561044157600080fd5b91908080601f016020809104026020016040519081016040528093929190818152602001838380828437600092019190915250929550610c51945050505050565b61049f6004803603602081101561049857600080fd5b5035610cb4565b604080516001600160e81b03199092168252519081900360200190f35b610169600480360360208110156104d257600080fd5b5035610ce9565b61014d600480360360408110156104ef57600080fd5b506001600160a01b0381358116916020013516610eba565b6001600160e01b0319811660009081526020819052604090205460ff165b919050565b60098054604080516020601f60026000196101006001881615020190951694909404938401819004810282018101909252828152606093909290918301828280156105b65780601f1061058b576101008083540402835291602001916105b6565b820191906000526020600020905b81548152906001019060200180831161059957829003601f168201915b505050505090505b90565b60006105cc82610ee8565b151561060c57604051600160e51b62461bcd02815260040180806020018281038252602c815260200180611982602c913960400191505060405180910390fd5b506000908152600260205260409020546001600160a01b031690565b6000610633826108c0565b90506001600160a01b03838116908216141561068357604051600160e51b62461bcd028152600401808060200182810382526021815260200180611a066021913960400191505060405180910390fd5b806001600160a01b0316610695610f05565b6001600160a01b031614806106b657506106b6816106b1610f05565b610eba565b15156106f657604051600160e51b62461bcd0281526004018080602001828103825260388152602001806118f76038913960400191505060405180910390fd5b60008281526002602052604080822080546001600160a01b0319166001600160a01b0387811691821790925591518593918516917f8c5be1e5ebec7d5bd14f71427d1e84f3dd0314c0f7b2291e5b200ac8c7c3b92591a4505050565b60075490565b610769610763610f05565b82610f09565b15156107a957604051600160e51b62461bcd028152600401808060200182810382526031815260200180611a276031913960400191505060405180910390fd5b6107b4838383610fb2565b505050565b60006107c483610980565b821061080457604051600160e51b62461bcd02815260040180806020018281038252602b81526020018061184a602b913960400191505060405180910390fd5b6001600160a01b038316600090815260056020526040902080548390811061082857fe5b9060005260206000200154905092915050565b6107b483838360405180602001604052806000815250610c51565b6000610860610752565b82106108a057604051600160e51b62461bcd02815260040180806020018281038252602c815260200180611a58602c913960400191505060405180910390fd5b60078054839081106108ae57fe5b90600052602060002001549050919050565b6000818152600160205260408120546001600160a01b031680151561091957604051600160e51b62461bcd0281526004018080602001828103825260298152602001806119596029913960400191505060405180910390fd5b92915050565b600b8054604080516020601f60026000196101006001881615020190951694909404938401819004810282018101909252828152606093909290918301828280156105b65780601f1061058b576101008083540402835291602001916105b6565b60006001600160a01b03821615156109cc57604051600160e51b62461bcd02815260040180806020018281038252602a81526020018061192f602a913960400191505060405180910390fd5b6001600160a01b038216600090815260036020526040902061091990610fd1565b6001600160e81b031981166000908152600e602052604090205460ff1615610a5f5760408051600160e51b62461bcd02815260206004820152600c60248201527f636f6c6f72206578697374730000000000000000000000000000000000000000604482015290519081900360640190fd5b600d8054600181018083556000929092527fd7b6990105719101dabeb77144f2a3385c8033acd3af97e9423a695e81ad1eb5600a80830491909101805462ffffff929093066003026101000a9182021990921660e885901c91909102179055610ac83382610fd5565b506001600160e81b0319166000908152600e60205260409020805460ff19166001179055565b600a8054604080516020601f60026000196101006001881615020190951694909404938401819004810282018101909252828152606093909290918301828280156105b65780601f1061058b576101008083540402835291602001916105b6565b610b57610f05565b6001600160a01b0383811691161415610bba5760408051600160e51b62461bcd02815260206004820152601960248201527f4552433732313a20617070726f766520746f2063616c6c657200000000000000604482015290519081900360640190fd5b8060046000610bc7610f05565b6001600160a01b03908116825260208083019390935260409182016000908120918716808252919093529120805460ff191692151592909217909155610c0b610f05565b60408051841515815290516001600160a01b0392909216917f17307eab39ab6107e8899845ad3d59bd9653f200f220920489ca2b5937696c319181900360200190a35050565b610c62610c5c610f05565b83610f09565b1515610ca257604051600160e51b62461bcd028152600401808060200182810382526031815260200180611a276031913960400191505060405180910390fd5b610cae84848484610ff6565b50505050565b600d805482908110610cc257fe5b90600052602060002090600a9182820401919006600302915054906101000a900460e81b81565b6060610cf482610ee8565b1515610d3457604051600160e51b62461bcd02815260040180806020018281038252602f8152602001806119d7602f913960400191505060405180910390fd5b6000828152600c602090815260409182902080548351601f6002600019610100600186161502019093169290920491820184900484028101840190945280845260609392830182828015610dc95780601f10610d9e57610100808354040283529160200191610dc9565b820191906000526020600020905b815481529060010190602001808311610dac57829003601f168201915b50505050509050805160001415610df0575050604080516020810190915260008152610525565b600b816040516020018083805460018160011615610100020316600290048015610e515780601f10610e2f576101008083540402835291820191610e51565b820191906000526020600020905b815481529060010190602001808311610e3d575b5050825160208401908083835b60208310610e7d5780518252601f199092019160209182019101610e5e565b6001836020036101000a03801982511681845116808217855250505050505090500192505050604051602081830303815290604052915050610525565b6001600160a01b03918216600090815260046020908152604080832093909416825291909152205460ff1690565b6000908152600160205260409020546001600160a01b0316151590565b3390565b6000610f1482610ee8565b1515610f5457604051600160e51b62461bcd02815260040180806020018281038252602c8152602001806118cb602c913960400191505060405180910390fd5b6000610f5f836108c0565b9050806001600160a01b0316846001600160a01b03161480610f9a5750836001600160a01b0316610f8f846105c1565b6001600160a01b0316145b80610faa5750610faa8185610eba565b949350505050565b610fbd83838361104d565b610fc78382611199565b6107b48282611290565b5490565b610fdf82826112ce565b610fe98282611290565b610ff281611407565b5050565b611001848484610fb2565b61100d8484848461144b565b1515610cae57604051600160e51b62461bcd0281526004018080602001828103825260328152602001806118756032913960400191505060405180910390fd5b826001600160a01b0316611060826108c0565b6001600160a01b0316146110a857604051600160e51b62461bcd0281526004018080602001828103825260298152602001806119ae6029913960400191505060405180910390fd5b6001600160a01b03821615156110f257604051600160e51b62461bcd0281526004018080602001828103825260248152602001806118a76024913960400191505060405180910390fd5b6110fb81611693565b6001600160a01b038316600090815260036020526040902061111c906116d0565b6001600160a01b038216600090815260036020526040902061113d906116e7565b60008181526001602052604080822080546001600160a01b0319166001600160a01b0386811691821790925591518493918716917fddf252ad1be2c89b69c2b068fc378daa952ba7f163c4a11628f55a4df523b3ef91a4505050565b6001600160a01b0382166000908152600560205260408120546111c390600163ffffffff6116f016565b600083815260066020526040902054909150808214611260576001600160a01b038416600090815260056020526040812080548490811061120057fe5b906000526020600020015490508060056000876001600160a01b03166001600160a01b031681526020019081526020016000208381548110151561124057fe5b600091825260208083209091019290925591825260069052604090208190555b6001600160a01b038416600090815260056020526040902080549061128990600019830161180c565b5050505050565b6001600160a01b0390911660009081526005602081815260408084208054868652600684529185208290559282526001810183559183529091200155565b6001600160a01b038216151561132e5760408051600160e51b62461bcd02815260206004820181905260248201527f4552433732313a206d696e7420746f20746865207a65726f2061646472657373604482015290519081900360640190fd5b61133781610ee8565b1561138c5760408051600160e51b62461bcd02815260206004820152601c60248201527f4552433732313a20746f6b656e20616c7265616479206d696e74656400000000604482015290519081900360640190fd5b600081815260016020908152604080832080546001600160a01b0319166001600160a01b0387169081179091558352600390915290206113cb906116e7565b60405181906001600160a01b038416906000907fddf252ad1be2c89b69c2b068fc378daa952ba7f163c4a11628f55a4df523b3ef908290a45050565b600780546000838152600860205260408120829055600182018355919091527fa66cc928b5edb82af9bd49922954155ab7b0942694bea4ce44661d9a8736c6880155565b600061145f846001600160a01b0316611739565b151561146d57506001610faa565b600060606001600160a01b038616600160e11b630a85bd010261148e610f05565b89888860405160240180856001600160a01b03166001600160a01b03168152602001846001600160a01b03166001600160a01b0316815260200183815260200180602001828103825283818151815260200191508051906020019080838360005b838110156115075781810151838201526020016114ef565b50505050905090810190601f1680156115345780820380516001836020036101000a031916815260200191505b5060408051601f198184030181529181526020820180516001600160e01b03166001600160e01b0319909a16999099178952518151919890975087965094509250829150849050835b6020831061159c5780518252601f19909201916020918201910161157d565b6001836020036101000a0380198251168184511680821785525050505050509050019150506000604051808303816000865af19150503d80600081146115fe576040519150601f19603f3d011682016040523d82523d6000602084013e611603565b606091505b50915091508115156116595780511561161f5780518082602001fd5b604051600160e51b62461bcd0281526004018080602001828103825260328152602001806118756032913960400191505060405180910390fd5b600081806020019051602081101561167057600080fd5b50516001600160e01b031916600160e11b630a85bd0102149350610faa92505050565b6000818152600260205260409020546001600160a01b0316156116cd57600081815260026020526040902080546001600160a01b03191690555b50565b80546116e390600163ffffffff6116f016565b9055565b80546001019055565b600061173283836040518060400160405280601e81526020017f536166654d6174683a207375627472616374696f6e206f766572666c6f770000815250611772565b9392505050565b6000813f7fc5d2460186f7233c927e7db2dcc703c0e500b653ca82273b7bfad8045d85a470818114801590610faa575050151592915050565b6000818484111561180457604051600160e51b62461bcd0281526004018080602001828103825283818151815260200191508051906020019080838360005b838110156117c95781810151838201526020016117b1565b50505050905090810190601f1680156117f65780820380516001836020036101000a031916815260200191505b509250505060405180910390fd5b505050900390565b8154818355818111156107b4576000838152602090206107b49181019083016105be91905b808211156118455760008155600101611831565b509056fe455243373231456e756d657261626c653a206f776e657220696e646578206f7574206f6620626f756e64734552433732313a207472616e7366657220746f206e6f6e20455243373231526563656976657220696d706c656d656e7465724552433732313a207472616e7366657220746f20746865207a65726f20616464726573734552433732313a206f70657261746f7220717565727920666f72206e6f6e6578697374656e7420746f6b656e4552433732313a20617070726f76652063616c6c6572206973206e6f74206f776e6572206e6f7220617070726f76656420666f7220616c6c4552433732313a2062616c616e636520717565727920666f7220746865207a65726f20616464726573734552433732313a206f776e657220717565727920666f72206e6f6e6578697374656e7420746f6b656e4552433732313a20617070726f76656420717565727920666f72206e6f6e6578697374656e7420746f6b656e4552433732313a207472616e73666572206f6620746f6b656e2074686174206973206e6f74206f776e4552433732314d657461646174613a2055524920717565727920666f72206e6f6e6578697374656e7420746f6b656e4552433732313a20617070726f76616c20746f2063757272656e74206f776e65724552433732313a207472616e736665722063616c6c6572206973206e6f74206f776e6572206e6f7220617070726f766564455243373231456e756d657261626c653a20676c6f62616c20696e646578206f7574206f6620626f756e6473a165627a7a72305820846d1c2d45d98b47a07ab2a8cd0f06ce0e61e3dcd9815075bd76482b61c321af0029",
    "sourcePath": "/home/dario/DEV/Visual Studio/Solidity/RSK/Colors/contracts/Color.sol",
    "compiler": {
        "name": "solc",
        "version": "0.5.5+commit.47a71e8f"
    },
    "functionHashes": {
        "approve(address,uint256)": "095ea7b3",
        "balanceOf(address)": "70a08231",
        "baseURI()": "6c0360eb",
        "colors(uint256)": "bd11f69d",
        "getApproved(uint256)": "081812fc",
        "isApprovedForAll(address,address)": "e985e9c5",
        "mint(bytes3)": "80bcefab",
        "name()": "06fdde03",
        "ownerOf(uint256)": "6352211e",
        "safeTransferFrom(address,address,uint256)": "42842e0e",
        "safeTransferFrom(address,address,uint256,bytes)": "b88d4fde",
        "setApprovalForAll(address,bool)": "a22cb465",
        "supportsInterface(bytes4)": "01ffc9a7",
        "symbol()": "95d89b41",
        "tokenByIndex(uint256)": "4f6ccce7",
        "tokenOfOwnerByIndex(address,uint256)": "2f745c59",
        "tokenURI(uint256)": "c87b56dd",
        "totalSupply()": "18160ddd",
        "transferFrom(address,address,uint256)": "23b872dd"
    },
    "gasEstimates": {
        "creation": {
            "codeDepositCost": "1366200",
            "executionCost": "infinite",
            "totalCost": "infinite"
        },
        "external": {
            "approve(address,uint256)": "infinite",
            "balanceOf(address)": "infinite",
            "baseURI()": "infinite",
            "colors(uint256)": "2487",
            "getApproved(uint256)": "infinite",
            "isApprovedForAll(address,address)": "772",
            "mint(bytes3)": "226923",
            "name()": "infinite",
            "ownerOf(uint256)": "infinite",
            "safeTransferFrom(address,address,uint256)": "infinite",
            "safeTransferFrom(address,address,uint256,bytes)": "infinite",
            "setApprovalForAll(address,bool)": "infinite",
            "supportsInterface(bytes4)": "596",
            "symbol()": "infinite",
            "tokenByIndex(uint256)": "infinite",
            "tokenOfOwnerByIndex(address,uint256)": "infinite",
            "tokenURI(uint256)": "infinite",
            "totalSupply()": "421",
            "transferFrom(address,address,uint256)": "infinite"
        }
    }
}